:100000000BC023C022C021C020C041C01EC01DC0E3
:100010001CC01BC01AC019C011241FBECFEDCDBF1C
:1000200010E0A0E6B0E0E2E1F5E003C0C89531964B
:100030000D92A436B107D1F710E0A4E6B0E001C0FC
:100040001D92A636B107E1F73AC0DACF282F392F33
:1000500093E003C0892F8A95F1F7215030408FEF4C
:100060002F3F3807B9F70895882311F0D89A01C0B7
:10007000D89888E690E0EADF0895813029F48BB3C0
:100080008C7F8BBBD09A0895D99AD09808951F92EF
:100090000F920FB60F9211248F939F93809164005B
:1000A00090916500019690936500809364001EBC5A
:1000B0009F918F910F900FBE0F901F901895CDEDCF
:1000C000D0E0DEBFCDBF82E78ABB1BBA18BA10BE34
:1000D00081E28FBD1EBC89B7846089BF80E0CDDF1F
:1000E00062E08C2F9D2F0196B9D02981809160000C
:1000F0002817A1F49A8180916100981779F4DD980E
:10010000DC98DE9A00E010E088EE93E09FDF0F5F5E
:100110001F4F83E0083E1807B9F712C0223401F7D9
:100120008A81833579F4DD98DC9ADE9A00E010E06C
:1001300088EE93E08BDF0F5F1F4F083C1105C1F77E
:10014000DE98CECF8F3461F6DD9ACACF1F9389B384
:10015000B69B12C081E091DF10E062E080E690E0A3
:100160004DD188EE93E072DF1F5F1431B1F780E06C
:1001700084DF80E090E003C09927817090701F9128
:1001800008951F93CF93DF93D92FC82FDFDF182F48
:10019000109265001092640005C0D8DF181711F0A6
:1001A000992709C080916400909165008C179D0784
:1001B000A0F382E090E0DF91CF911F9108950F931B
:1001C0001F93182FC3DF082F112359F080E992E005
:1001D000D8DF823018F082E090E008C08DE490E033
:1001E00002C08AE990E032DF802F99271F910F919A
:1001F00008951F93CF93DF931092650010926400CF
:100200007894A4DF182F8823E1F382E590E0B9DF2A
:100210008230B9F79BDF282F811731F0CC0FDD1F1B
:10022000822F9927C82BD92B122F85E5C535D807E2
:1002300089F78BE790E0A5DF8CE794E0A2DF8130BF
:1002400001F78BE790E09DDF8823D9F68AE990E0FB
:10025000FDDEDF91CF911F9108950895BF92CF9257
:10026000DF92EF92FF920F931F93CF93DF93E82ECD
:10027000F92EC62EBEDFC0E0D0E0DD2400E0BB24B6
:1002800031C081E09CDF182F8230A0F780E097DF3B
:10029000282F823078F7CC0FDD1F812F9927C82BAC
:1002A000D92BCC0FDD1F822F9927C82BD92B0E5F9E
:1002B0000031C1F48C2F9D2F06D18823D9F28C2FC9
:1002C0009D2FE7D0FF2DEE2DED0DF11D8083BB207E
:1002D00039F4853339F4DD2400E081E0B82E02C022
:1002E000D39400E0DC1468F2DF91CF911F910F915D
:1002F000FF90EF90DF90CF90BF9008950F931F93E2
:10030000082F192F812F881F8827881FADDE912F76
:10031000802F892F96E086959A95E9F78170A4DE63
:10032000912F802F892F99278295869587708170CC
:100330009BDE912F802F892F992782958F70817056
:1003400093DE912F802F892F992786958695869504
:1003500081708ADE912F802F892F99278695869527
:10036000817082DE912F802F892F99278695817049
:100370007BDE812F9927817077DE912F802F880F68
:10038000892F881F990B919581706EDE912F802F98
:10039000F6E096958795FA95E1F7817065DE912FE5
:1003A000802FE5E096958795EA95E1F781705CDE10
:1003B000912F802F74E0969587957A95E1F781705B
:1003C00053DE912F802F63E0969587956A95E1F72C
:1003D00081704ADE912F802F969587959695879507
:1003E000817042DE912F802F9695879581703CDE3B
:1003F000802F817039DE1F910F9108950F931F9305
:10040000CF93DF93D92FC82F062F8FEF9FEF76DF83
:1004100085E595E573DF80E027DE80E025DE80E07E
:1004200023DE80E021DE80E01FDE80E01DDE81E053
:100430001BDE80E019DE85E319D060DF10E008C024
:10044000FD2FEC2FE10FF11D808110D057DF1F5FD2
:100450001017B1F781E008DE80E006DE80E090E072
:100460004DDFDF91CF911F910F910895282F80E0EC
:1004700090E030E0969587959695879520FF02C08D
:10048000906801C090643F5F383011F02695F2CF3C
:100490000895282F392F40E080E0582F550F60E055
:1004A000932F822F8070907C8050904809F461E0F7
:1004B000852F862B220F331F220F331F4F5F4830AB
:1004C00061F799270895282F392F60E070E0932F66
:1004D000822F96958795817020FD05C040E050E001
:1004E000882339F404C040E050E0882311F041E053
:1004F00050E0740F6F5F683029F036952795369578
:100500002795E5CF80E090E0772311F481E090E03B
:0205100008954C
:04051200425500004E
:00000001FF
