:100000000C942A000C9447000C9447000C94470071
:100010000C9447000C9447000C9447000C94470044
:100020000C9447000C9447000C9447000C94470034
:100030000C9447000C9447000C9447000C94470024
:100040000C9447000C9447000C9447000C94470014
:100050000C94470011241FBECFE5D4E0DEBFCDBF16
:1000600011E0A0E6B0E0E6EAF8E002C005900D92EB
:10007000A036B107D9F711E0A0E6B1E001C01D92AA
:10008000A036B107E1F70E94C3010C9452040C940E
:1000900000009C0103C085E08A95F1F721503040B3
:1000A0008FEF2F3F3807B9F708958FEF81BB8FEFA0
:1000B00090E097BD86BD1DBC1CBC89E090E09BBD57
:1000C0008ABD8FE290E099BD88BD81EA8FBD8AE04C
:1000D0008EBD8AE685BD0895A0E6B0E0FD01E80F7B
:1000E000F11D80812FEF30E0F901E81BF109FBBD24
:1000F000EABDFD01E60FF11D8081281B310939BDE4
:1001000028BDA40FB11D8C91809583BD08952F92B9
:100110003F924F925F926F927F928F929F92AF9297
:10012000BF92EF92FF920F931F93CF93DF93CDB7C0
:10013000DEB762970FB6F894DEBF0FBECDBF962E26
:10014000A42E3A8B298B1E830D83F886EF826623BB
:1001500031F4F9014083ED81FE814083E8C0682FCE
:1001600070E0882777FD8095982F0E940E0320E08D
:1001700030E04FE753E40E94780220E030E040ECAA
:1001800050E40E94EF037B018C010E9449030E940E
:10019000E00269877A878B879C87B9846A2D70E033
:1001A000882777FD8095982F0E940E0369837A83B4
:1001B0008B839C83692D70E0882777FD8095982F2D
:1001C0000E940E036D877E878F87988B20E030E03A
:1001D0004FE753EC0E94780220E030E040E85FE314
:1001E0000E9414029B01AC0169817A818B819C8100
:1001F0000E94EF031B012C016B2D70E0882777FD17
:100200008095982F0E940E039B01AC01C801B70195
:100210000E9413027B018C019B01AC0160E070E045
:1002200080E89FE30E9413029B01AC016D857E85EF
:100230008F8598890E94EF0320E030E04FE753EC70
:100240000E94780220E030E040E85FE30E94140260
:100250009B01AC0169817A818B819C810E94EF03B3
:100260003B014C01BB2049F4E989FA89A0820E9434
:10027000E002ED81FE81608329C0A80197016D85B0
:100280007E858F8598890E94EF0320E030E04FE75C
:1002900053EC0E94780220E030E040E85FE30E94E7
:1002A00014029B01AC0169817A818B819C810E943F
:1002B000EF037B018C01F1E0BF1659F40E94E002CC
:1002C000E989FA896083ED81FE81A082C201B101D2
:1002D0003EC0F2E0BF1669F4C201B1010E94E00223
:1002E000E989FA896083ED81FE81A082C401B301AE
:1002F0002EC0F3E0BF1651F4C201B1010E94E0022A
:10030000E989FA896083C801B7010CC0F4E0BF161F
:1003100091F4C401B3010E94E002E989FA89608383
:10032000C201B1010E94E002ED81FE816083EF8194
:10033000F885A08211C0E989FA89A082C201B101C1
:100340000E94E002ED81FE816083C801B7010E9436
:10035000E002EF81F885608362960FB6F894DEBF05
:100360000FBECDBFDF91CF911F910F91FF90EF9006
:10037000BF90AF909F908F907F906F905F904F90C5
:100380003F902F9008956F927F928F929F92AF929D
:10039000BF92CF92DF92EF92FF920F931F93CF9372
:1003A000DF93CDB7DEB723970FB6F894DEBF0FBE4D
:1003B000CDBF19821A821B820E945500CC24DD24F5
:1003C00093E0692E712C6C0E7D1E82E0882E912C9C
:1003D0008C0E9D1E5E010894A11CB11C82B391E09D
:1003E000892782BB7301840195014FEF6FEF8C2D3C
:1003F0000E9487004B816A8189810E946C0080E1A4
:1004000097E20E94490089818F5F8F7789839A8163
:1004100080E0992309F481E0890F8F778A8308941B
:10042000C11CD11CDBCF5058BB27AA270ED086C1D8
:1004300077D130F07CD120F031F49F3F11F41EF4DD
:100440006CC10EF4E095E7FB37C1E92F88D180F34A
:10045000BA17620773078407950718F071F49EF5C1
:10046000B7C10EF4E0950B2EBA2FA02D0B01B901E8
:1004700090010C01CA01A0011124FF27591B99F01A
:10048000593F50F4503E68F11A16F040A22F232F26
:10049000342F4427585FF3CF469537952795A79576
:1004A000F0405395C9F77EF41F16BA0B620B730B1D
:1004B000840BBAF09150A1F0FF0FBB1F661F771F8E
:1004C000881FC2F70EC0BA0F621F731F841F48F443
:1004D000879577956795B795F7959E3F08F0B3CFC9
:1004E0009395880F08F09927EE0F979587950895B3
:1004F0000CD024C11CD140F013D130F021F45F3F67
:1005000019F0DAC0511165C108C129D198F39923B6
:10051000C9F35523B1F3951B550BBB27AA276217C7
:100520007307840738F09F5F5F4F220F331F441F0C
:10053000AA1FA9F333D00E2E3AF0E0E830D0915044
:100540005040E695001CCAF729D0FE2F27D0660F31
:10055000771F881FBB1F261737074807AB07B0E870
:1005600009F0BB0B802DBF01FF2793585F4F2AF086
:100570009E3F510568F0A0C02CC15F3FECF3983E50
:10058000DCF3869577956795B795F7959F5FC9F7E3
:10059000880F911D9695879597F90895E1E0660F6C
:1005A000771F881FBB1F621773078407BA0720F0E5
:1005B000621B730B840BBA0BEE1F88F7E09508954E
:1005C000D6D088F09F5790F0B92F9927B751A0F057
:1005D000D1F0660F771F881F991F1AF0BA95C9F7D7
:1005E00012C0B13081F0F4D0B1E00895F1C0672FAE
:1005F000782F8827B85F39F0B93FCCF38695779587
:100600006795B395D9F73EF490958095709561956F
:100610007F4F8F4F9F4F0895E89409C097FB3EF49A
:1006200090958095709561957F4F8F4F9F4F99233F
:10063000A9F0F92F96E9BB279395F69587957795BD
:100640006795B795F111F8CFFAF4BB0F11F460FF7D
:100650001BC06F5F7F4F8F4F9F4F16C0882311F0D5
:1006600096E911C0772321F09EE8872F762F05C0E9
:10067000662371F096E8862F70E060E02AF09A9584
:10068000660F771F881FDAF7880F9695879597F979
:10069000089587D080F09F3740F491110EF099C0F3
:1006A00060E070E080E89FEB089526F41B16611D62
:1006B000711D811D07C021C097F99F6780E870E018
:1006C00060E00895882371F4772321F09850872BF8
:1006D000762F07C0662311F499270DC09051862B01
:1006E00070E060E02AF09A95660F771F881FDAF7AE
:1006F000880F9695879597F908959F3F49F09150F7
:1007000028F4869577956795B7959F5F80389F4FBA
:10071000880F9695879597F908959FEF80EC089537
:1007200000240A94161617061806090608950024D0
:100730000A9412161306140605060895092E03944A
:10074000000C11F4882352F0BB0F40F4BF2B11F4BE
:1007500060FF04C06F5F7F4F8F4F9F4F089557FD1D
:100760009058440F551F59F05F3F71F04795880F1F
:1007700097FB991F61F09F3F79F0879508951216B6
:1007800013061406551FF2CF4695F1DF08C0161662
:1007900017061806991FF1CF869571056105089413
:1007A0000895E5DFA0F0BEE7B91788F4BB279F38AE
:1007B00060F41616B11D672F782F8827985FF7CF42
:1007C000869577956795B11D93959639C8F30895E9
:1007D000E894BB2766277727CB0197F908950BD0BC
:1007E000ADCF9EDF28F0A3DF18F0952309F064CF8A
:1007F00094CF1124EECFB3DFA0F3959FD1F3950FE3
:1008000050E0551F629FF001729FBB27F00DB11D94
:10081000639FAA27F00DB11DAA1F649F6627B00D24
:10082000A11D661F829F2227B00DA11D621F739F0D
:10083000B00DA11D621F839FA00D611D221F749F1B
:100840003327A00D611D231F849F600D211D822F62
:10085000762F6A2F11249F5750408AF0E1F08823A9
:100860004AF0EE0FFF1FBB1F661F771F881F9150B6
:100870005040A9F79E3F510570F01ECFAACF5F3FB1
:10088000ECF3983EDCF3869577956795B795F795E9
:10089000E7959F5FC1F7FE2B880F911D9695879571
:0608A00097F90895FFCF57
:1008A6000001010101010101010101010101010133
:1008B6000101010101010101010101010101010122
:1008C6000101020202020202020202020202020204
:1008D60002020202020303030303030303030303E7
:1008E60003030404040404040404040404050505C1
:1008F6000505050505060606060606060707070793
:100906000707080808080808090909090A0A0A0A57
:100916000A0B0B0B0B0C0C0C0C0D0D0D0E0E0E0F0B
:100926000F0F1010101111111212131314141415A5
:1009360015161617171818191A1A1B1B1C1D1D1E1B
:100946001E1F202121222324242526272829292A5F
:100956002B2C2D2E2F30313334353637383A3B3C5D
:100966003E3F404243454648494B4D4E50525456F1
:1009760057595B5D5F626466686A6D6F72747779FA
:100986007C7F8284878A8D9094979A9EA1A5A8AC35
:10099600B0B4B8BCC0C4C8CDD1D6DBDFE4E9EEF450
:00000001FF
