:100000000C942A000C9447000C9447000C94470071
:100010000C9447000C9447000C9447000C94470044
:100020000C9447000C9447000C9447000C94470034
:100030000C9447000C9447000C9447000C94470024
:100040000C9447000C9447000C9447000C94470014
:100050000C94470011241FBECFE5D4E0DEBFCDBF16
:1000600012E0A0E6B0E0ECE8F6E002C005900D92E8
:10007000A832B107D9F714E0A8E2B2E001C01D929E
:10008000A732B107E1F70E9449000C9445030C9494
:10009000000011BA8FEF87BB0E94EE020E94700031
:1000A00088B391E0892788BB88B392E0892788BB11
:1000B00088B394E0892788BB88B398E0892788BBF8
:1000C00088B390E1892788BB88B390E2892788BBF1
:1000D00088B390E4892788BB88B3805888BBE0CF79
:1000E000E8E2F2E0119284E0E032F807D9F71092EA
:1000F00023041092220487EF91E0909325048093CB
:10010000240481E080932604089596E0899FC0012D
:1001100011248A55904024E5629FB0011124860F76
:10012000971F90932104809320040895CF92DF922B
:10013000EF92FF920F931F93CF93DF93282FA091FD
:100140002004B09121048091220490912304A817E7
:10015000B90724F4B0932304A0932204862F80527D
:100160008C3508F06CE5213091F485E0689FF00152
:100170001124E054F040ED01C85DDD4F90E0819125
:10018000880F89939F5F9530D1F715968BC02230E9
:1001900009F08CC09D01245530408091220490913B
:1001A00023042817390724F43093230420932204CE
:1001B00037FD95C085E0689F7001112480EC9FEFAA
:1001C000E80EF91E8901085D1D4FED01C85DDD4F88
:1001D000DD24F70161917F01660F462F50E0CA01CF
:1001E00084709070FC01EE0FFF1FE80FF91FEE0FF7
:1001F000FF1FEE0FFF1F9A0122703070C901880F98
:10020000991F820F931F880F991FCE2EC82A4870FE
:100210005070CA01880F991F840F951F73E0880FD3
:10022000991F7A95E1F7C82A62956F7070E0CB014B
:10023000847090709C01220F331F280F391F220FEA
:10024000331F220F331FAB0142705070CA01880F59
:10025000991F840F951F880F991F282BAB01487099
:100260005070CA01880F991F840F951F43E0880FB3
:10027000991F4A95E1F7282B61707070CB01880FA8
:10028000991F860F971F282BF801C082C1822883EF
:100290002983D3940E5F1F4F2296F5E0DF1609F0F5
:1002A00098CF1B96B0932104A093200420912004A2
:1002B00030912104809124049091250482179307A2
:1002C00024F43093250420932404F901E85DFD4FC4
:1002D00010822F5F3F4F3093210420932004DF9141
:1002E000CF911F910F91FF90EF90DF90CF900895E5
:1002F0001F93CF93DF93182FEB0104C02196812F1A
:100300000E94960068816623C9F7DF91CF911F9103
:100310000895582F853508F059C0613308F056C04C
:10032000862F86958695869590E024E530E0F90144
:100330008E9F90018F9F300D9E9F300D1124250FB1
:10034000311D53E0880F991F5A95E1F7681BF90199
:10035000E85DFD4F5081442351F481E090E002C0FC
:10036000880F991F6A95E2F78095582315C0413090
:1003700049F481E090E002C0880F991F6A95E2F786
:10038000582B0AC0423041F481E090E002C0880F4F
:10039000991F6A95E2F75827F901E85DFD4F5083F0
:1003A00080912204909123042817390720F4309378
:1003B0002304209322048091240490912504821721
:1003C000930720F4309325042093240408955F922A
:1003D0006F927F928F929F92AF92BF92CF92DF9255
:1003E000EF92FF920F931F93CF93DF93C82ED62ED9
:1003F000542E622E702E30E0261B3109842F90E09F
:100400008C19910937FD04C0B1E08B2E912C06C0E8
:10041000309521953F4F88248A94982C97FD04C0ED
:10042000A1E0AA2EB12C06C0909581959F4FAA24D9
:10043000AA94BA2C7C01EE0CFF1C8901000F111F3D
:10044000472D6D2D8C2D0E9489010E151F05BCF4C2
:10045000C70195958795E801C81BD90B0DC0D7FD3D
:1004600003C0D80CCE19DF09CA0CC00FD11F472D0D
:100470006D2D8C2D0E948901C51489F716C0C80105
:1004800095958795E701C81BD90B0DC0D7FD03C013
:10049000CA0CC01BD10BD80CCE0DDF1D472D6D2D06
:1004A0008C2D0E948901D61489F781E0809326045F
:1004B000DF91CF911F910F91FF90EF90DF90CF9040
:1004C000BF90AF909F908F907F906F905F900895B6
:1004D000C198613011F4C29A01C0C2988FB9779B5C
:1004E000FECFC19A0895EF92FF920F931F93CF937F
:1004F000DF93809122049091230497FF05C010920E
:1005000023041092220409C0885F914034F087EFE1
:1005100091E090932304809322048091240490918D
:10052000250497FF05C0109225041092240409C0E9
:10053000885F914034F087EF91E090932504809399
:100540002404C0912204D0912304CE0164E570E01C
:100550000E941E0360E080680E946802CE0164E58C
:1005600070E00E941E03CB0160E080640E9468027C
:10057000E0902404F09025048E01085D1D4F07C013
:1005800061E0F80181918F010E9468022196EC16CA
:10059000FD06B4F787EF91E0909323048093220443
:1005A000109225041092240410922604DF91CF911A
:1005B0001F910F91FF90EF9008951F93182F60E007
:1005C00081E20E94680260E0812F80680E946802D8
:1005D00060E080E20E9468021F910895C09A87B38C
:1005E000876A87BBC098C09A80E58DB9C19A60E0E0
:1005F00081E20E94680260E088EC0E94680260E08C
:1006000086E00E94680260E083E10E94680260E088
:1006100080E20E94680260E08CE00E94680288EF3D
:1006200091E0909323048093220410922504109269
:1006300024040E9470000E947302089597FB092E03
:1006400007260AD077FD04D00CD006D000201AF47B
:10065000709561957F4F0895F6F7909581959F4F1E
:100660000895AA1BBB1B51E107C0AA1FBB1FA617F9
:10067000B70710F0A61BB70B881F991F5A95A9F74B
:0C06800080959095BC01CD010895FFCF3E
:10068C00000000000000002F00000007000700140D
:10069C007F147F14242A7F2A12C4C8102646364998
:1006AC005522500005030000001C2241000041228D
:1006BC001C0014083E081408083E080800005030BE
:1006CC0000101010101000606000002010080402D0
:1006DC003E5149453E00427F40004261514946210E
:1006EC0041454B311814127F1027454545393C4A7A
:1006FC0049493001710905033649494936064949CA
:10070C00291E00363600000056360000081422411F
:10071C000014141414140041221408020151090687
:10072C00324959513E7E1111117E7F494949363E5D
:10073C00414141227F4141221C7F494949417F0966
:10074C000909013E4149497A7F0808087F00417F29
:10075C0041002040413F017F081422417F4040402E
:10076C00407F020C027F7F0408107F3E4141413ED6
:10077C007F090909063E4151215E7F091929464628
:10078C004949493101017F01013F4040403F1F2051
:10079C0040201F3F4038403F631408146307087023
:1007AC0008076151494543007F414100552A552AAC
:1007BC00550041417F00040201020440404040408A
:1007CC00000102040020545454787F4844443838C3
:1007DC0044444420384444487F3854545418087EC8
:1007EC000901020C5252523E7F0804047800447DE9
:1007FC0040002040443D007F1028440000417F40D1
:10080C00007C041804787C08040478384444443888
:10081C007C14141408081414187C7C08040408486C
:10082C0054545420043F4440203C4040207C1C2025
:10083C0040201C3C4030403C44281028440C505074
:08084C00503C4464544C44008C
:00000001FF
