:100000000C9446000C9465000C9465000C946500FB
:100010000C9465000C9465000C9465000C946500CC
:100020000C9465000C9465000C9465000C946500BC
:100030000C9465000C9465000C9465000C946500AC
:100040000C9465000C9465000C9465000C9465009C
:100050000C9465000C9465000C9465000C9465008C
:100060000C9465000C9465000C9465000C9465007C
:100070000C9465000C9465000C9465000C9465006C
:100080000C9465000C9465000C94650011241FBE4F
:10009000CFEFD0E1DEBFCDBF11E0A0E0B1E0E6E7F9
:1000A000F1E000E00BBF02C007900D92A032B10753
:1000B000D9F711E0A0E2B1E001C01D92A232B10770
:1000C000E1F70E9474000C94BA000C9400009C01AB
:1000D00004C080EA9FE00197F1F7215030408FEF94
:1000E0002F3F3807B1F708958FEF82B980936100F1
:1000F0008ABB84BB50E040E061E015BA1BBAE52F33
:10010000F0E0EE0FFF1FE050FF4F0190F081E02D77
:100110005F5F503109F450E0242F332727FD3095DD
:10012000613099F480E890E002C0959587952A9512
:10013000E2F783B910926200842F8F5F883019F440
:1001400047E06FEF11C0482F0FC080E890E002C079
:10015000959587952A95E2F78093620013B8460F2C
:100160004F3F11F440E061E0E5BBFBBB85E38A95BE
:06017000F1F7C3CFFFCF41
:10017600010102020404080810102020404080807B
:10018600808040402020101008080404020201016B
:00000001FF
