:100000000BC023C022C021C020C0B3C01EC01DC071
:100010001CC01BC01AC019C011241FBECFEDCDBF1C
:1000200010E0A0E6B0E0E6EEF5E003C0C89531963A
:100030000D92AA36B107D1F710E0AAE6B0E001C0F0
:100040001D92AD36B107E1F7ACC0DACF882311F0CD
:10005000DB9A0895DB980895282F392F92E003C08A
:10006000892F8A95F1F7215030408FEF2F3F3807C5
:10007000B9F70895D09A9AE0892F8A95F1F7D89A1E
:10008000892F8A95F1F7C89903C010926C000AC0B5
:10009000D8989A95F1F7C89B02C081E001C082E030
:1000A00080936C00D898D0980895882311F0DD9A39
:1000B00001C0DD9882E790E0CFDF0895813029F418
:1000C0008BB38B7D8BBBD59A02C0DA9AD59880E52D
:1000D00093ECC2DF0895CF93DF93DB9A8BB38F73DA
:1000E0008BBBDE9A84EF91E0B7DF8BB390EC89276E
:1000F0008BBB84EF91E0B0DF8BB38F738BBBC0E021
:10010000D0E088EE93E0A8DF2196CA30D105C9F788
:10011000DE9A84EF91E0A0DF8BB390EC89278BBB54
:1001200084EF91E099DF8BB38F738BBBC0E0D0E09D
:1001300088EE93E091DF219681E0C43FD807C1F7B4
:10014000DB98C0E0D0E088EE93E086DF219681E086
:10015000C43FD807C1F7DF91CF91089581E076DFE2
:100160008FEC9DE079DF80E071DF8FEC9DE074DF44
:1001700008951F920F920FB60F9211248F939F93A1
:1001800080916A0090916B00019690936B00809330
:100190006A001EBC9F918F910F900FBE0F901F9011
:1001A0001895CDEDD0E0DEBFCDBF92E09BBB8DECCE
:1001B0008ABB9BBB10BE81E28FBD1EBC89B7846029
:1001C00089BF80E07BDF62E08C2F9D2F0196B0D04D
:1001D0009981809160009817B1F79A8180916100B0
:1001E000981789F778DFEFCF1F9319B343DF812F7B
:1001F000992781FD26C081E029DF81E05FDF10E0E3
:1002000080916C00882321F462E080E690E00BC0CE
:1002100080916C00813021F462E083E690E003C0BD
:1002200062E086E690E054D188EE93E015DF1F5F30
:10023000153031F780E042DF80E008DF80E090E0B9
:1002400007C025E0969587952A95E1F78170907013
:100250001F9108951F93CF93DF93D92FC82FC4DF29
:10026000182F10926B0010926A0005C0BDDF18179E
:1002700011F0992709C080916A0090916B008C174A
:100280009D07A0F382E090E0DF91CF911F91089548
:100290000F931F93182FA8DF082F112359F080E424
:1002A00091E0D8DF823018F082E090E008C08BE166
:1002B00090E002C082E290E0CFDE802F99271F916C
:1002C0000F9108951F93CF93DF9310926B001092BC
:1002D0006A007894C0E0D0E087DF182F8823E1F32C
:1002E00088E290E0B7DF8230B9F77EDF282F8117F0
:1002F00029F0CC0FDD1F9927C82BD92B122F85E5AC
:10030000C535D80791F78CE390E0A4DF80E392E055
:10031000A1DF813009F78CE390E09CDF8823E1F6D0
:100320008CE290E099DEDF91CF911F9108950895BE
:10033000BF92CF92DF92EF92FF920F931F93CF93D2
:10034000DF93E82EF92EC62EBDDFC0E0D0E0DD241D
:1003500000E0BB2431C081E09BDF182F8230A0F782
:1003600080E096DF282F823078F7CC0FDD1F812FB9
:100370009927C82BD92BCC0FDD1F822F9927C82B8B
:10038000D92B0E5F0031C1F48C2F9D2F06D188230D
:10039000D9F28C2F9D2FE7D0FF2DEE2DED0DF11D05
:1003A0008083BB2039F4853339F4DD2400E081E01B
:1003B000B82E02C0D39400E0DC1468F2DF91CF9134
:1003C0001F910F91FF90EF90DF90CF90BF90089515
:1003D0000F931F93082F192F812F881F8827881F9D
:1003E00064DE912F802F892F96E086959A95E9F704
:1003F00081705BDE912F802F892F992782958695BA
:100400008770817052DE912F802F892F99278295D6
:100410008F7081704ADE912F802F892F99278695C2
:1004200086958695817041DE912F802F892F99279F
:1004300086958695817039DE912F802F892F992797
:100440008695817032DE812F992781702EDE912F63
:10045000802F880F892F881F990B9195817025DE39
:10046000912F802FF6E096958795FA95E1F78170A8
:100470001CDE912F802FE5E096958795EA95E1F7B0
:10048000817013DE912F802F74E0969587957A9571
:10049000E1F781700ADE912F802F63E096958795B2
:1004A0006A95E1F7817001DE912F802F96958795EF
:1004B000969587958170F9DD912F802F9695879578
:1004C0008170F3DD802F8170F0DD1F910F91089511
:1004D0000F931F93CF93DF93D92FC82F062F8FEF42
:1004E0009FEF76DF85E595E573DF80E0DEDD80E078
:1004F000DCDD80E0DADD80E0D8DD80E0D6DD80E0A4
:10050000D4DD81E0D2DD80E0D0DD85E319D060DF8D
:1005100010E008C0FD2FEC2FE10FF11D808110D0FD
:1005200057DF1F5F1017B1F781E0BFDD80E0BDDD51
:1005300080E090E04DDFDF91CF911F910F91089502
:10054000282F80E090E030E09695879596958795E6
:1005500020FF02C0906801C090643F5F383011F006
:100560002695F2CF0895282F392F40E080E0582FAC
:10057000550F60E0932F822F8070907C80509048C0
:1005800009F461E0852F862B220F331F220F331FC2
:100590004F5F483061F799270895282F392F60E081
:1005A00070E0932F822F96958795817020FD05C06E
:1005B00040E050E0882339F404C040E050E0882354
:1005C00011F041E050E0740F6F5F683029F036950C
:1005D000279536952795E5CF80E090E0772311F4B5
:0605E00081E090E00895A7
:0A05E600425500425300424F00004E
:00000001FF
