:100000000BC023C022C021C020C01FC01EC01DC005
:100010001CC01BC01AC075C011241FBECFEDCDBFC0
:1000200010E0A0E6B0E0E2E4F1E003C0C89531964C
:100030000D92A036B107D1F710E0A0E6B0E001C004
:100040001D92A336B107E1F71FC0DACF282F392F51
:1000500093E003C0892F8A95F1F7215030408FEF4C
:100060002F3F3807B9F70895CF93DF93D92FC82FC3
:1000700003C088EE93E0EADF21978FEFCF3FD807E8
:10008000C1F7DF91CF910895CFEDD0E0DEBFCDBFB6
:100090001BBA80EC8ABB80E88BBB17BA18BA80EA1F
:1000A00087B98EEE86B9789426B380916200813844
:1000B00010F426FFF9CF809160009091610081508B
:1000C000904210F426FF16C0CD9914C0F894DE9A21
:1000D000DF98CC9903C088E893E102C080ED97E0F7
:1000E000C3DFDF9A84EF91E0BFDFDE9888E893E119
:1000F000BBDF789410926200109261001092600051
:10010000D3CF1F920F920FB60F9211242F933F93CC
:100110008F9385B12091600030916100280F311DCF
:100120003093610020936000809162008F5F809324
:1001300062008F913F912F910F900FBE0F901F90F3
:02014000189510
:00000001FF
