:100000000C945C000C9484000C9484000C94840088
:100010000C9484000C9484000C9484000C94840050
:100020000C9484000C9484000C9484000C94840040
:100030000C9484000C9484000C9484000C94840030
:100040000C946D040C9484000C9479060C94840038
:100050000C9484000C9484000C9484000C94840010
:100060000C9484000C948400000024272A000025AE
:10007000282B000023262904040404040404040299
:100080000202020202030303030303010204081035
:100090002040800102040810200102040810200002
:1000A0000000070002010000030406000000000039
:1000B000000000003502C50211241FBECFEFD4E0BE
:1000C000DEBFCDBF11E0A0E0B1E0E4E4FEE002C09D
:1000D00005900D92A032B107D9F712E0A0E2B1E08D
:1000E00001C01D92AE3FB107E1F710E0C8EBD0E0D0
:1000F00004C02297FE010E941C07C43BD107C9F728
:100100000E94BE020C9420070C940000FF920F93F3
:100110001F93CF93DF93F62E142FC0E0D0E060E062
:1001200007FD61E08F2D0E946805000F60E0812FC0
:100130000E94680584E690E00E94020561E0812F3C
:100140000E94680584E690E00E9402052196C8306E
:10015000D10529F7DF91CF911F910F91FF9008955D
:10016000EF92FF920F931F93CF93DF937C01042FA5
:10017000C0E0D0E010E060E0802F0E94680584E6D7
:1001800090E00E940205F70182810E94B305110FE1
:10019000182B61E0802F0E94680584E690E00E94A1
:1001A00002052196C830D10531F7812FDF91CF911B
:1001B0001F910F91FF90EF900895EF92FF920F9390
:1001C0001F937C01062F142F61E0FC0182810E94A5
:1001D0004A050068F701408151816281738121E005
:1001E000C7010E948600F7014081518162817381BD
:1001F000012F21E0C7010E94860060E0F7018281A3
:100200000E944A051F910F91FF90EF90089541E0E1
:1002100060E40E94DD000895EF92FF920F937C014D
:10022000062F61E0FC0182810E944A05F7014081AE
:1002300051816281738121E0C7010E94860060E0E4
:10024000F70182810E944A05F70140815181628154
:10025000738121E0C7010E94B0000F91FF90EF90E1
:100260000895EF92FF920F931F93CF93DF938C012A
:100270007B0140E068E40E94DD00C0E0D0E068E47B
:10028000C8010E940C01F701EC0FFD1F808386FF5F
:10029000F6CF219681E0C434D80789F7DF91CF915A
:1002A0001F910F91FF90EF90089564E40E940C015C
:1002B000089566E40E940C01089565E40E940C0113
:1002C000089567E40E940C01089562E40E940C0105
:1002D000089563E40E940C0108950F931F938C010D
:1002E00064EF71E080E090E00E94D80440E860E4B0
:1002F000C8010E94DD0064EF71E080E090E00E94A0
:10030000D804C8010E94070161E4C8010E940C01E1
:1003100090E0807E803409F491E0892F1F910F9145
:100320000895EF92FF920F931F937C01842FF701A2
:1003300071836083428353833583248317830683C9
:1003400060E00E94680560E0F70180810E94680516
:1003500060E0F70186810E94680561E0F701848111
:100360000E94680561E0F70180810E944A0561E012
:10037000F70186810E944A0561E0F70184810E94AD
:100380004A051F910F91FF90EF900895EF92FF9211
:100390000F931F937C01842FF70171836083428345
:1003A0005383358324831783068360E00E946805A6
:1003B00060E0F70180810E94680560E0F7018681B6
:1003C0000E94680561E0F70184810E94680561E090
:1003D000F70180810E944A0561E0F70186810E9451
:1003E0004A0561E0F70184810E944A051F910F913F
:1003F000FF90EF9008950F931F938C01842FF801C5
:10040000718360834283538360E00E94680560E0EB
:10041000F80180810E94680561E0F80180810E94F6
:100420004A051F910F9108950F931F938C01842FFC
:10043000F801718360834283538360E00E94680502
:1004400060E0F80180810E94680561E0F801808128
:100450000E944A051F910F910895282F30E087FFD1
:1004600002C020583040C90108950F931F9308E03F
:1004700010E02CE030E04BE050E06AE070E088E60D
:1004800092E00E9491011F910F910895EF92FF92C7
:100490000F931F93009164021091650288E6E82E85
:1004A00082E0F82EC7010E946901992787FD909587
:1004B000800F911F90936502809364020091660201
:1004C00010916702C7010E946501992787FD9095E9
:1004D000800F911F909367028093660200E712E0FD
:1004E00060E071E0C8010E94EE0240916402509108
:1004F0006502662757FD6095762F2AE030E0C80137
:100500000E944D0464E071E0C8010E94EE02409137
:10051000660250916702662757FD6095762F2AE0A4
:1005200030E0C8010E9462041F910F91FF90EF908C
:10053000089540E052EC61E070E080E792E00E94B4
:10054000D90261E086E00E944A0561E087E00E94EE
:100550004A0561E086E00E94680560E087E00E944D
:10056000680588E692E00E946D01882331F46AE014
:1005700071E080E792E00E942D0308950E9410052B
:100580000E9499020E944602FDCF8EE191E0909375
:100590007102809370020895862F0E943806089594
:1005A0000E94700608950E94510608950E94400618
:1005B0000895CB01BA010E94FF050895DC01ED9179
:1005C000FC910190F081E02D09950895DC01ED91F9
:1005D000FC910190F081E02D099508950F931F93F0
:1005E000CF93DF938C01EB0109C02196D801ED91E7
:1005F000FC910190F081E02DC80109956881662386
:10060000A1F7DF91CF911F910F9108950F931F9341
:100610008C01DC01ED91FC910190F081E02D6DE009
:100620000995D801ED91FC910190F081E02D6AE0EF
:10063000C80109951F910F9108950F931F938C0185
:10064000DC01ED91FC910190F081E02D0995C8014C
:100650000E9406031F910F9108950F931F938C0121
:100660000E94EE02C8010E9406031F910F91089597
:100670000F931F938C01DC01ED91FC910190F081AF
:10068000E02D0995C8010E9406031F910F9108955E
:100690002F923F924F925F926F927F928F929F9292
:1006A000AF92BF92CF92DF92EF92FF920F931F9380
:1006B000DF93CF93CDB7DEB7A0970FB6F894DEBF28
:1006C0000FBECDBF1C016A017B01411551056105BB
:1006D000710549F4DC01ED91FC910190F081E02D70
:1006E00060E3099554C0882499245401422E55246E
:1006F0006624772401E010E00C0F1D1F080D191D62
:10070000C701B601A30192010E94C906F8016083E6
:100710000894811C911CA11CB11CC701B601A30146
:1007200092010E94C906C901DA016C017D01C11460
:10073000D104E104F104F1F681E0E82EF12CEC0E95
:10074000FD1EE80CF91C3E010894611C711CD501CA
:10075000C4010197A109B1096C01C818D90814C0D6
:10076000F601EE0DFF1D60816A3010F4605D01C07E
:10077000695CD101ED91FC910190F081E02DC10106
:1007800009950894E108F1086E147F0449F7A096D2
:100790000FB6F894DEBF0FBECDBFCF91DF911F9192
:1007A0000F91FF90EF90DF90CF90BF90AF909F9010
:1007B0008F907F906F905F904F903F902F90089513
:1007C0002AE00E94480308950F931F938C010E9412
:1007D000E003C8010E9406031F910F910895AB0129
:1007E00060E070E00E94E00308950F931F938C0176
:1007F000AB0160E070E00E94E003C8010E940603C4
:100800001F910F910895EF92FF920F931F93CF9333
:10081000DF93EC017A018B0177FF0FC0E881F9814A
:100820000190F081E02D6DE2099510950095F0940E
:10083000E094E11CF11C011D111D2AE0B801A70183
:10084000CE010E944803DF91CF911F910F91FF903D
:10085000EF9008950F931F938C010E940304C80129
:100860000E9406031F910F910895AB01662757FD63
:100870006095762F0E94030408950F931F938C01B7
:10088000AB01662757FD6095762F0E940304C801CF
:100890000E9406031F910F910895DC012115310577
:1008A00041F4ED91FC910190F081E02D642F0995C8
:1008B00008952A30310519F40E94030408950E9416
:1008C000480308950F931F938C010E944D04C801A3
:1008D0000E9406031F910F9108951F920F920FB669
:1008E0000F9211242F938F939F93AF93BF93809177
:1008F000720290917302A0917402B09175028050BF
:10090000904CAF4FBF4F8093720290937302A093AD
:100910007402B093750227C08091720290917302A5
:10092000A0917402B091750280589E43A040B040DF
:100930008093720290937302A0937402B093750235
:100940008091760290917702A0917802B09179021D
:100950000196A11DB11D8093760290937702A0931A
:100960007802B09379028091720290917302A09103
:100970007402B091750281589E43A040B04060F669
:10098000BF91AF919F918F912F910F900FBE0F90BC
:100990001F9018958FB7F8942091760230917702C6
:1009A00040917802509179028FBFB901CA01089530
:1009B000EF92FF920F931F937B018C018FB7F894F6
:1009C000409176025091770260917802709179029D
:1009D0008FBF2FB7F8948091760290917702A09103
:1009E0007802B09179022FBF841B950BA60BB70B31
:1009F0008E159F05A007B10760F31F910F91FF901F
:100A0000EF900895019759F0FC01EE0FFF1FEE0FD4
:100A1000FF1F32978FB7F8943197F1F78FBF089582
:100A2000789484B5826084BD84B5816084BD85B5C9
:100A3000826085BD85B5816085BDEEE6F0E0808190
:100A400081608083E1E8F0E0808182608083808142
:100A500081608083E0E8F0E0808181608083E1EB69
:100A6000F0E0808184608083E0EBF0E08081816051
:100A70008083EAE7F0E08081846080838081826007
:100A800080838081816080838081806880831092F0
:100A9000C1000895282F30E0C90185579F4FFC0100
:100AA000949129583F4FF9018491882381F0E82FD0
:100AB000F0E0E859FF4FE491F0E0662329F48081EB
:100AC00090958923808308958081892B8083089560
:100AD000482F50E0CA0181569F4FFC012491CA0162
:100AE00085579F4FFC01949149585F4FFA0134910B
:100AF0003323C1F1222331F1233021F4809180008E
:100B00008F7705C0243031F4809180008F7D8093F1
:100B1000800018C0213019F484B58F7704C02230CA
:100B200021F484B58F7D84BD0DC0263021F48091E1
:100B3000B0008F7705C0273029F48091B0008F7DF9
:100B40008093B000E32FF0E0E359FF4FE491F0E031
:100B5000662329F48081909589238083089580817C
:100B6000892B80830895482F50E0CA0181569F4FFA
:100B7000FC012491CA0185579F4FFC01949149586B
:100B80005F4FFA013491332319F420E030E035C08F
:100B9000222331F1233021F4809180008F7705C02A
:100BA000243031F4809180008F7D8093800018C0C4
:100BB000213019F484B58F7704C0223021F484B534
:100BC0008F7D84BD0DC0263021F48091B0008F77D9
:100BD00005C0273029F48091B0008F7D8093B0004C
:100BE000E32FF0E0EE58FF4FE491F0E0808120E049
:100BF00030E0892311F021E030E0C9010895EF923F
:100C0000FF920F931F937B018C0122E030E040E0C4
:100C100050E00E94EB06205C3D4B404F5F4FCA0105
:100C2000B901A80197010E94EB06C901DA010197F9
:100C3000A109B109292F3A2F4B2F552747FD5A9566
:100C40000196A11DB11D2093C50081508093C40061
:100C5000E1ECF0E080818061808380818860808326
:100C60008081806880831F910F91FF90EF9008959D
:100C7000982F8091C00085FFFCCF9093C600089507
:100C800080917A0290917B0280589F4F20917C0244
:100C900030917D02821B930B60E870E00E94B606E3
:100CA000089540917C0250917D0280917A0290914A
:100CB0007B028417950719F42FEF3FEF0FC0FA015D
:100CC000E258FD4F2081CA01019660E870E00E9461
:100CD000B60690937D0280937C0230E0C9010895AE
:100CE00080917C0290917D0290937B0280937A02A6
:100CF00008951F920F920FB60F9211242F933F93D6
:100D00004F935F936F937F938F939F93AF93BF9313
:100D1000EF93FF934091C600E0917A02F0917B023D
:100D2000CF01019660E870E00E94B6069C018091B8
:100D30007C0290917D022817390739F0E258FD4F67
:100D4000408330937B0220937A02FF91EF91BF9111
:100D5000AF919F918F917F916F915F914F913F9153
:100D60002F910F900FBE0F901F90189597FB092E93
:100D700007260AD077FD04D049D006D000201AF407
:100D8000709561957F4F0895F6F7909581959F4FE7
:100D90000895A1E21A2EAA1BBB1BFD010DC0AA1FBC
:100DA000BB1FEE1FFF1FA217B307E407F50720F0D4
:100DB000A21BB30BE40BF50B661F771F881F991F4F
:100DC0001A9469F760957095809590959B01AC0198
:100DD000BD01CF01089597FB092E05260ED057FDC2
:100DE00004D0D7DF0AD0001C38F4509540953095D8
:100DF00021953F4F4F4F5F4F0895F6F7909580959F
:100E0000709561957F4F8F4F9F4F0895AA1BBB1B15
:100E100051E107C0AA1FBB1FA617B70710F0A61BFA
:100E2000B70B881F991F5A95A9F780959095BC011B
:100E3000CD010895EE0FFF1F0590F491E02D099468
:040E4000F894FFCF54
:100E4400583D20002020593D200043616D206E6FE5
:100E54007420666F756E640D0A0000000000CC02F9
:00000001FF
