:100000000C945C000C9484000C9484000C94840088
:100010000C9484000C9484000C9484000C94840050
:100020000C9484000C9484000C9484000C94840040
:100030000C9484000C9484000C9484000C94840030
:100040000C9471040C9484000C947D060C94840030
:100050000C9484000C9484000C9484000C94840010
:100060000C9484000C948400000024272A000025AE
:10007000282B000023262904040404040404040299
:100080000202020202030303030303010204081035
:100090002040800102040810200102040810200002
:1000A0000000070002010000030406000000000039
:1000B000000000002102C90211241FBECFEFD4E0CE
:1000C000DEBFCDBF11E0A0E0B1E0ECE4FEE002C095
:1000D00005900D92A631B107D9F712E0A6E1B1E083
:1000E00001C01D92A03FB107E1F710E0C8EBD0E0DE
:1000F00004C02297FE010E942007C43BD107C9F724
:100100000E94C2020C9424070C940000FF920F93EB
:100110001F93CF93DF93F62E142FC0E0D0E060E062
:1001200007FD61E08F2D0E946C05000F60E0812FBC
:100130000E946C0584E690E00E94060561E0812F34
:100140000E946C0584E690E00E9406052196C83066
:10015000D10529F7DF91CF911F910F91FF9008955D
:10016000EF92FF920F931F93CF93DF937C01042FA5
:1001700010E0C0E0D0E060E0802F0E946C0584E6D3
:1001800090E00E940605F70182810E94B705110FD9
:10019000182B61E0802F0E946C0584E690E00E949D
:1001A00006052196C830D10531F7812FDF91CF9117
:1001B0001F910F91FF90EF900895EF92FF920F9390
:1001C0001F937C01062F142F61E0FC0182810E94A5
:1001D0004E050068F701408151816281738121E001
:1001E000C7010E948600F7014081518162817381BD
:1001F000012F21E0C7010E94860060E0F7018281A3
:100200000E944E051F910F91FF90EF90089541E0DD
:1002100060E40E94DD000895EF92FF920F937C014D
:10022000062F61E0FC0182810E944E05F7014081AA
:1002300051816281738121E0C7010E94860060E0E4
:10024000F70182810E944E05F70140815181628150
:10025000738121E0C7010E94B0000F91FF90EF90E1
:100260000895EF92FF920F931F93CF93DF938C012A
:100270007B0140E068E40E94DD00C0E0D0E068E47B
:10028000C8010E940C01F701EC0FFD1F808386FF5F
:10029000F6CF219681E0C434D80789F7DF91CF915A
:1002A0001F910F91FF90EF90089562E40E940C015E
:1002B000089563E40E940C01089567E40E940C0114
:1002C00008950F931F938C0164EF71E080E090E03C
:1002D0000E94DC0440E860E4C8010E94DD0064EF95
:1002E00071E080E090E00E94DC04C8010E940701F8
:1002F00061E4C8010E940C0190E0807E803409F422
:1003000091E0892F1F910F910895EF92FF920F9323
:100310001F937C01842FF701718360834283538391
:10032000358324831783068360E00E946C0560E0B8
:10033000F70180810E946C0560E0F70186810E94D0
:100340006C0561E0F70184810E946C0561E0F701B2
:1003500080810E944E0561E0F70186810E944E0572
:1003600061E0F70184810E944E051F910F91FF907B
:10037000EF900895EF92FF920F931F937C01842FCB
:10038000F70171836083428353833583248317830A
:10039000068360E00E946C0560E0F70180810E94A6
:1003A0006C0560E0F70186810E946C0561E0F70151
:1003B00084810E946C0561E0F70180810E944E05F6
:1003C00061E0F70186810E944E0561E0F7018481BA
:1003D0000E944E051F910F91FF90EF9008950F938B
:1003E0001F938C01842FF8017183608342835383B0
:1003F00060E00E946C0560E0F80180810E946C055D
:1004000061E0F80180810E944E051F910F910895CF
:100410000F931F938C01842FF801718360834283B3
:10042000538360E00E946C0560E0F80180810E94C7
:100430006C0561E0F80180810E944E051F910F91CB
:1004400008950F931F9308E010E02CE030E04BE09C
:1004500050E06AE070E08AE592E00E9485011F9119
:100460000F910895DF92EF92FF920F931F93CF9316
:10047000DF93D82EE62EF22EC0E0D0E08F2D90E054
:1004800040E050E060E070E08C0100781070F7FE12
:1004900004C041E050E060E070E020E130E082E63E
:1004A00092E00E94510460E0101611060CF461E025
:1004B0008D2D0E946C05FF0C60E08E2D0E946C0556
:1004C00084E690E00E94060561E08E2D0E946C0596
:1004D00084E690E00E9406052196C830D10571F6A9
:1004E000DF91CF911F910F91FF90EF90DF900895D2
:1004F000CF93DF9366E171E08AE592E00E943101DB
:10050000C6E1D1E0499150E060E070E020E030E0E9
:1005100082E692E00E94510482E0CA35D80791F742
:1005200082E692E00E94DA028823D1F382E692E02A
:100530000E94D402DF91CF91089540E052EC61E037
:1005400070E082E692E00E94DD0261E086E00E94B7
:100550004E0560E086E00E946C0561E087E00E9445
:100560004E0561E087E00E946C058AE592E00E94FA
:100570006101882331F460E071E082E692E00E943C
:10058000310308950E9414050E949D020E94780282
:10059000FDCF84E191E0909363028093620208951D
:1005A000862F0E943C0608950E94740608950E94BA
:1005B000550608950E9444060895CB01BA010E9491
:1005C00003060895DC01ED91FC910190F081E02D8E
:1005D00009950895DC01ED91FC910190F081E02DE9
:1005E000099508950F931F93CF93DF938C01EB012F
:1005F00009C02196D801ED91FC910190F081E02D88
:10060000C801099568816623A1F7DF91CF911F91F9
:100610000F9108950F931F938C01DC01ED91FC91D4
:100620000190F081E02D6DE00995D801ED91FC91EC
:100630000190F081E02D6AE0C80109951F910F91AA
:1006400008950F931F938C01DC01ED91FC910190B3
:10065000F081E02D0995C8010E940A031F910F91B6
:1006600008950F931F938C010E94F202C8010E940B
:100670000A031F910F9108950F931F938C01DC01C2
:10068000ED91FC910190F081E02D0995C8010E9447
:100690000A031F910F9108952F923F924F925F92FC
:1006A0006F927F928F929F92AF92BF92CF92DF9282
:1006B000EF92FF920F931F93DF93CF93CDB7DEB7E7
:1006C000A0970FB6F894DEBF0FBECDBF1C016A0124
:1006D0007B01411551056105710549F4DC01ED917E
:1006E000FC910190F081E02D60E3099554C08824CD
:1006F00099245401422E55246624772401E010E009
:100700000C0F1D1F080D191DC701B601A301920191
:100710000E94CD06F80160830894811C911CA11CE5
:10072000B11CC701B601A30192010E94CD06C90107
:10073000DA016C017D01C114D104E104F104F1F688
:1007400081E0E82EF12CEC0EFD1EE80CF91C3E01B8
:100750000894611C711CD501C4010197A109B1095C
:100760006C01C818D90814C0F601EE0DFF1D608198
:100770006A3010F4605D01C0695CD101ED91FC91BB
:100780000190F081E02DC10109950894E108F1087C
:100790006E147F0449F7A0960FB6F894DEBF0FBE23
:1007A000CDBFCF91DF911F910F91FF90EF90DF9020
:1007B000CF90BF90AF909F908F907F906F905F9001
:1007C0004F903F902F9008952AE00E944C03089587
:1007D0000F931F938C010E94E403C8010E940A0337
:1007E0001F910F910895AB0160E070E00E94E40357
:1007F00008950F931F938C01AB0160E070E00E949D
:10080000E403C8010E940A031F910F910895EF921B
:10081000FF920F931F93CF93DF93EC017A018B012B
:1008200077FF0FC0E881F9810190F081E02D6DE242
:10083000099510950095F094E094E11CF11C011DC0
:10084000111D2AE0B801A701CE010E944C03DF91DF
:10085000CF911F910F91FF90EF9008950F931F93E9
:100860008C010E940704C8010E940A031F910F9186
:100870000895AB01662757FD6095762F0E94070407
:1008800008950F931F938C01AB01662757FD609568
:10089000762F0E940704C8010E940A031F910F913E
:1008A0000895DC012115310541F4ED91FC91019091
:1008B000F081E02D642F099508952A30310519F44F
:1008C0000E94070408950E944C0308950F931F93FC
:1008D0008C010E945104C8010E940A031F910F91CC
:1008E00008951F920F920FB60F9211242F938F939A
:1008F0009F93AF93BF938091640290916502A09102
:100900006602B09167028050904CAF4FBF4F80930A
:10091000640290936502A0936602B093670227C0B9
:100920008091640290916502A0916602B091670285
:1009300080589E43A040B04080936402909365022B
:10094000A0936602B0936702809168029091690259
:10095000A0916A02B0916B020196A11DB11D809316
:10096000680290936902A0936A02B0936B0280912F
:10097000640290916502A0916602B091670281586D
:100980009E43A040B04060F6BF91AF919F918F9180
:100990002F910F900FBE0F901F9018958FB7F8945E
:1009A000209168023091690240916A0250916B0275
:1009B0008FBFB901CA010895EF92FF920F931F9361
:1009C0007B018C018FB7F8944091680250916902C5
:1009D00060916A0270916B028FBF2FB7F89480917B
:1009E000680290916902A0916A02B0916B022FBFD8
:1009F000841B950BA60BB70B8E159F05A007B1079F
:100A000060F31F910F91FF90EF900895019759F0B7
:100A1000FC01EE0FFF1FEE0FFF1F32978FB7F89408
:100A20003197F1F78FBF0895789484B5826084BDC3
:100A300084B5816084BD85B5826085BD85B58160E2
:100A400085BDEEE6F0E0808181608083E1E8F0E042
:100A5000808182608083808181608083E0E8F0E033
:100A6000808181608083E1EBF0E08081846080831D
:100A7000E0EBF0E0808181608083EAE7F0E0808154
:100A800084608083808182608083808181608083B4
:100A90008081806880831092C1000895282F30E003
:100AA000C90185579F4FFC01949129583F4FF90187
:100AB0008491882381F0E82FF0E0E859FF4FE4911A
:100AC000F0E0662329F4808190958923808308953E
:100AD0008081892B80830895482F50E0CA01815678
:100AE0009F4FFC012491CA0185579F4FFC019491AF
:100AF00049585F4FFA0134913323C1F1222331F178
:100B0000233021F4809180008F7705C0243031F4A8
:100B1000809180008F7D8093800018C0213019F46F
:100B200084B58F7704C0223021F484B58F7D84BDD5
:100B30000DC0263021F48091B0008F7705C027309A
:100B400029F48091B0008F7D8093B000E32FF0E016
:100B5000E359FF4FE491F0E0662329F480819095FA
:100B60008923808308958081892B80830895482F6D
:100B700050E0CA0181569F4FFC012491CA0185575C
:100B80009F4FFC01949149585F4FFA0134913323F0
:100B900019F420E030E035C0222331F1233021F474
:100BA000809180008F7705C0243031F480918000DF
:100BB0008F7D8093800018C0213019F484B58F7721
:100BC00004C0223021F484B58F7D84BD0DC0263051
:100BD00021F48091B0008F7705C0273029F48091EF
:100BE000B0008F7D8093B000E32FF0E0EE58FF4F10
:100BF000E491F0E0808120E030E0892311F021E0F1
:100C000030E0C9010895EF92FF920F931F937B018B
:100C10008C0122E030E040E050E00E94EF06205CD2
:100C20003D4B404F5F4FCA01B901A80197010E9497
:100C3000EF06C901DA010197A109B109292F3A2F5D
:100C40004B2F552747FD5A950196A11DB11D2093A5
:100C5000C50081508093C400E1ECF0E080818061A8
:100C600080838081886080838081806880831F91F9
:100C70000F91FF90EF900895982F8091C00085FF0D
:100C8000FCCF9093C600089580916C0290916D0204
:100C900080589F4F20916E0230916F02821B930B00
:100CA00060E870E00E94BA06089540916E0250918B
:100CB0006F0280916C0290916D028417950719F470
:100CC0002FEF3FEF0FC0FA01E059FD4F2081CA011D
:100CD000019660E870E00E94BA0690936F028093DC
:100CE0006E0230E0C901089580916E0290916F020A
:100CF00090936D0280936C0208951F920F920FB62D
:100D00000F9211242F933F934F935F936F937F9391
:100D10008F939F93AF93BF93EF93FF934091C60040
:100D2000E0916C02F0916D02CF01019660E870E0F5
:100D30000E94BA069C0180916E0290916F02281762
:100D4000390739F0E059FD4F408330936D0220930D
:100D50006C02FF91EF91BF91AF919F918F917F9125
:100D60006F915F914F913F912F910F900FBE0F9018
:100D70001F90189597FB092E07260AD077FD04D0FF
:100D800049D006D000201AF4709561957F4F0895E0
:100D9000F6F7909581959F4F0895A1E21A2EAA1B10
:100DA000BB1BFD010DC0AA1FBB1FEE1FFF1FA2171B
:100DB000B307E407F50720F0A21BB30BE40BF50B18
:100DC000661F771F881F991F1A9469F760957095A1
:100DD000809590959B01AC01BD01CF01089597FBD3
:100DE000092E05260ED057FD04D0D7DF0AD0001CEF
:100DF00038F450954095309521953F4F4F4F5F4FB8
:100E00000895F6F790958095709561957F4F8F4F77
:100E10009F4F0895AA1BBB1B51E107C0AA1FBB1F10
:100E2000A617B70710F0A61BB70B881F991F5A9576
:100E3000A9F780959095BC01CD010895EE0FFF1F95
:0C0E40000590F491E02D0994F894FFCF88
:100E4C0043616D206E6F7420666F756E640D0A00C1
:060E5C0000000000D002BE
:00000001FF
